:100000000C9462000C948A000C948A000C940E05E7
:100010000C940E050C940E050C948A000C94D405D7
:100020000C948A000C948A000C948A000C94180595
:100030000C948A000C948A000C948A000C948A0018
:100040000C946C040C948A000C94DC040C94B6049C
:100050000C948A000C948A000C948A000C948A00F8
:100060000C948A000C948A00000000080002010031
:100070000003040700000000000000000000000072
:10008000240027002A000000000023002600290089
:1000900000000000250028002B00040404040404D0
:1000A0000404020202020202030303030303010227
:1000B00004081020408001020408102001020408F6
:1000C0001020F90511241FBECFEFD8E0DEBFCDBF51
:1000D00011E0A0E0B1E0E0EEF2E102C005900D9287
:1000E000A831B107D9F722E0A8E1B1E001C01D9223
:1000F000A430B207E1F710E0C2E6D0E004C02197D7
:10010000FE010E946809C136D107C9F70E94920614
:100110000C946E090C9400008F929F92AF92BF9244
:10012000FF920F931F93CF93DF93F090EF012BE09B
:100130002F1508F44CC02091F10108E512E0021BD4
:10014000110927FD1395000F111F000F111F20919A
:10015000F001C8E8D0E0C21BD10927FDD395CC0F30
:10016000DD1FCC0FDD1F4E010D2E000CAA08BB08B1
:100170009801012E000C440B550B281939094A0926
:100180005B09DC010E94230924EB30E040E050E0F1
:100190000E94F908820E931EA41EB51E8C169D06A1
:1001A0002CF0E801801691060CF4E4012297CC0FA4
:1001B000DD1F2FB7F8948F2D90E0FC01EE0FFF1F8D
:1001C000E80FF91FE653FE4FD283C1832FBFDF91A3
:1001D000CF911F910F91FF90BF90AF909F908F9004
:1001E0000895833081F028F4813099F08230A9F0AD
:1001F00008958730A9F08830C9F08430B1F4809137
:1002000080008F7D03C0809180008F778093800075
:10021000089584B58F7784BD089584B58F7DFBCF15
:100220008091B0008F778093B00008958091B000E6
:100230008F7DF9CFCF93DF93282F30E0F901E85974
:10024000FF4F8491F901E255FF4FD491F901E65631
:10025000FF4FC491CC23A1F081110E94F100EC2F3B
:10026000F0E0EE0FFF1FEA57FF4FA591B491EC911C
:10027000ED2381E090E009F480E0DF91CF910895D3
:1002800080E090E0FACF1F93CF93DF93282F30E0E8
:10029000F901E859FF4F8491F901E255FF4FD491DC
:1002A000F901E656FF4FC491CC23A9F0162F811116
:1002B0000E94F100EC2FF0E0EE0FFF1FE057FF4F20
:1002C000A591B4918FB7F894EC91111108C0D09515
:1002D000DE23DC938FBFDF91CF911F910895DE2B3A
:1002E000F8CFCF93DF9390E0FC01E255FF4F2491CC
:1002F00086569F4FFC0184918823D1F090E0880FAF
:10030000991FFC01E458FF4FA591B491FC01E057FF
:10031000FF4FC591D49161110EC09FB7F8948C9195
:10032000E22FE0958E238C932881E223E8839FBF00
:10033000DF91CF9108958FB7F894EC91E22BEC9375
:100340008FBFF6CFE82FF0E0E859FF4FE491E3309C
:1003500029F150F4E130C1F0E230D9F06038710594
:10036000BCF560E00C944301E73011F1E83041F155
:10037000E430A1F7809180008062809380007093C8
:100380008B0060938A00089584B5806884BD67BD42
:10039000089584B5806284BD68BD08958091800011
:1003A000806880938000709389006093880008952E
:1003B0008091B00080688093B0006093B30008958E
:1003C0008091B00080628093B0006093B400089583
:1003D00061E0C8CF3FB7F8948091290190912A013C
:1003E000A0912B01B0912C0126B5A89B05C02F3FF1
:1003F00019F00196A11DB11D3FBFBA2FA92F982F4B
:100400008827BC01CD01620F711D811D911D42E045
:10041000660F771F881F991F4A95D1F708958F920D
:100420009F92AF92BF92CF92DF92EF92FF924B01D9
:100430005C010E94EA016B017C010E94EA016C19D7
:100440007D098E099F09683E734081059105A8F3D7
:1004500021E0821A9108A108B10888EEC80E83E055
:10046000D81EE11CF11C81149104A104B10429F7E8
:10047000FF90EF90DF90CF90BF90AF909F908F90C4
:100480000895AF92BF92CF92DF92EF92FF920F93B7
:100490001F93CF93DF936C017B018B01040F151F1A
:1004A000EB015E01AE18BF08C017D10759F0699182
:1004B000D601ED91FC910190F081E02DC6010995E6
:1004C000892B79F7C501DF91CF911F910F91FF9093
:1004D000EF90DF90CF90BF90AF900895FC01538DC7
:1004E000448D252F30E0842F90E0821B930B54170E
:1004F00010F0CF96089501970895FC01918D828D9B
:10050000981761F0A28DAE0FBF2FB11D5D968C9133
:10051000928D9F5F9F73928F90E008958FEF9FEF72
:100520000895FC01918D828D981731F0828DE80F2E
:10053000F11D858D90E008958FEF9FEF0895FC01E8
:10054000918D228D892F90E0805C9F4F821B9109B5
:100550008F73992708958DE291E00E949F0221E018
:10056000892B09F420E0822F089580E090E0892B08
:1005700029F00E94AB0281110C9400000895FC0147
:10058000A48DA80FB92FB11DA35ABF4F2C91848DF4
:1005900090E001968F739927848FA689B7892C9351
:1005A000A089B1898C91837080648C93938D848DA4
:1005B000981306C00288F389E02D80818F7D8083A7
:1005C0000895EF92FF920F931F93CF93DF93EC0167
:1005D00081E0888F9B8D8C8D98131AC0E889F989EA
:1005E000808185FF15C09FB7F894EE89FF896083ED
:1005F000E889F98980818370806480839FBF81E06E
:1006000090E0DF91CF911F910F91FF90EF900895AF
:10061000F62E0B8D10E00F5F1F4F0F731127E02E8A
:100620008C8D8E110CC00FB607FCFACFE889F989C2
:10063000808185FFF5CFCE010E94BF02F1CFEB8D07
:10064000EC0FFD2FF11DE35AFF4FF0829FB7F89496
:100650000B8FEA89FB8980818062CFCFCF93DF93B4
:10066000EC01888D8823B9F0AA89BB89E889F989CA
:100670008C9185FD03C0808186FD0DC00FB607FCFF
:10068000F7CF8C9185FFF2CF808185FFEDCFCE0132
:100690000E94BF02E9CFDF91CF91089560E08BE027
:1006A0000E94430161E086E00E94430161E089E02D
:1006B0000E94430160E085E00C94430161E08BE01F
:1006C0000E94430160E086E00E94430160E089E00F
:1006D0000E94430161E085E00C94430160E08BE0FF
:1006E0000E94430160E086E00E94430160E089E0EF
:1006F0000E94430160E085E00C94430160E08BE0E0
:100700000E94430161E086E00E94430160E089E0CD
:100710000E94430161E085E00C94430161E08BE0BD
:100720000E94430160E086E00E94430161E089E0AD
:100730000E94430160E085E00C9443010F931F93F6
:1007400066E470E080E090E00E940F02E091FC011E
:10075000F091FD0180819091F601892B8083E091D9
:10076000F801F091F90190818091F601809589233B
:1007700080838BE090E00197F1F7E091F801F09130
:10078000F90180819091F601892B808383E290E0CA
:100790000197F1F7E091F801F091F90190818091D2
:1007A000F601809589238083E091FC01F091FD01A1
:1007B00090818091F601809589238083E091FA01F0
:1007C000F091FB0180819091F701892399F090E0ED
:1007D00080E0BC0190E080E029E330E040E050E0C0
:1007E0000E942B09C901009711F48AEF90E01F9134
:1007F0000F9108950E94EA01AB01BC018091FE01B6
:100800009091FF01B0E0A0E08855994EAF4FBF4FE7
:10081000840F951FA61FB71F8093000290930102BB
:10082000A0930202B0930302E091FA01F091FB0160
:1008300080819091F701892381F40E94EA0100915F
:10084000000210910102209102023091030206176A
:1008500017072807390740F7BACF0E94EA0120910D
:10086000FE013091FF01620F731F811D911D609386
:100870000002709301028093020290930302E091C0
:10088000FA01F091FB0180819091F701892381F0B9
:100890000E94EA01009100021091010220910202DF
:1008A00030910302061717072807390740F78FCF43
:1008B0000E94EA012091FE013091FF01A9014550FB
:1008C00051092091000230910102FA01E21BF30B61
:1008D000CF01860F971F7DCF1F920F920FB60F92F9
:1008E00011242F933F938F939F93AF93BF93809146
:1008F000250190912601A0912701B0912801309106
:10090000240123E0230F2D3758F50196A11DB11DB9
:10091000209324018093250190932601A093270121
:10092000B09328018091290190912A01A0912B0177
:10093000B0912C010196A11DB11D809329019093C6
:100940002A01A0932B01B0932C01BF91AF919F91ED
:100950008F913F912F910F900FBE0F901F90189580
:1009600026E8230F0296A11DB11DD2CF1F920F9230
:100970000FB60F9211242F933F934F935F936F9372
:100980007F938F939F93AF93BF93EF93FF938DE2EA
:1009900091E00E94BF02FF91EF91BF91AF919F91B3
:1009A0008F917F916F915F914F913F912F910F9018
:1009B0000FBE0F901F9018951F920F920FB60F92B7
:1009C00011242F938F939F93EF93FF93E0913D0119
:1009D000F0913E018081E0914301F091440182FD5C
:1009E0001BC09081809146018F5F8F7320914701DA
:1009F000821741F0E0914601F0E0E35DFE4F958FF4
:100A000080934601FF91EF919F918F912F910F90CD
:100A10000FBE0F901F9018958081F4CF1F920F92F8
:100A20000FB60F9211240F900FBE0F901F901895C4
:100A30001F920F920FB60F9211242F933F934F9353
:100A40005F936F937F938F939F93AF93BF93CF9356
:100A5000DF93EF93FF9380911C01C091EE01D0E0F2
:100A600087FF24C0109285001092840080911C01A1
:100A70008F5F80931C0180911C01082E000C990B44
:100A80008C179D0724F480911C018C30C4F1809157
:100A9000840090918500049680349C4908F47AC0C3
:100AA0008091840090918500049676C080911C010D
:100AB000082E000C990B8C179D07C4F6E0911C01C1
:100AC0008E2FEE0F990BFC01EE0FFF1FE80FF91FA1
:100AD000E653FE4F808186FFC9CFE0911C018E2F27
:100AE000EE0F990BFC01EE0FFF1FE80FF91FE65305
:100AF000FE4F808160E08F730E944301B7CF209149
:100B0000840030918500E0911C018E2FEE0F990B2F
:100B1000FC01EE0FFF1FE80FF91FE653FE4F818126
:100B20009281820F931F9093890080938800E091B7
:100B30001C018E2FEE0F990BFC01EE0FFF1FE80F2B
:100B4000F91FE653FE4F808186FF11C0E0911C0122
:100B50008E2FEE0F990BFC01EE0FFF1FE80FF91F10
:100B6000E653FE4F808161E08F730E944301FF9145
:100B7000EF91DF91CF91BF91AF919F918F917F9135
:100B80006F915F914F913F912F910F900FBE0F90FA
:100B90001F90189580E49CE99093890080938800C9
:100BA0008FEF80931C01E3CF1F920F920FB60F922D
:100BB00011242F933F934F935F936F937F938F9362
:100BC0009F93AF93BF93EF93FF93F0E0E0E009951D
:100BD000FF91EF91BF91AF919F918F917F916F9115
:100BE0005F914F913F912F910F900FBE0F901F90EB
:100BF00018951092300110922F0188EE93E0A0E03A
:100C0000B0E08093310190933201A0933301B0930F
:100C1000340186E091E090932E0180932D0185ECC4
:100C200090E090933A018093390184EC90E09093A6
:100C30003C0180933B0180EC90E090933E018093D7
:100C40003D0181EC90E09093400180933F0182EC64
:100C500090E0909342018093410186EC90E0909364
:100C60004401809343011092460110924701109273
:100C7000480110924901ECEBF0E0E491E093F601B9
:100C8000EDEBF0E0E491E093F70188EA90E0FC01FD
:100C90002491E22FF0E0EE0FFF1FE057FF4F259168
:100CA00034913093F9012093F801E9EAF0E0E491FE
:100CB000F0E0EE0FFF1FEA57FF4F2591349130937C
:100CC000FB012093FA01FC018491E82FF0E0EE0F84
:100CD000FF1FE458FF4F859194919093FD018093FD
:100CE000FC0183EE97E39093FF018093FE018091D6
:100CF000EE018C3098F491E0980F9093EE01809380
:100D0000EF0190E0FC01EE0FFF1FE80FF91FE65323
:100D1000FE4F88EB9BE09283818308958FEF809351
:100D2000EF010895789484B5826084BD84B58160B4
:100D300084BD85B5826085BD85B5816085BD8091A6
:100D40006E00816080936E0010928100809181001E
:100D50008260809381008091810081608093810016
:100D6000809180008160809380008091B1008460D8
:100D70008093B1008091B00081608093B000809139
:100D80007A00846080937A0080917A0082608093F8
:100D90007A0080917A00816080937A0080917A0055
:100DA000806880937A001092C1008091EF018C30AE
:100DB00008F051C061E08AE00E9471018091EF016A
:100DC000282F30E0F901EE0FFF1FE20FF31FE6536B
:100DD000FE4F9081907C9A6090831092F001109267
:100DE000F1012CE0622F0E945C09829FB001112466
:100DF00030E020E0AB01420F531FFA01EE0FFF1F5E
:100E0000E40FF51FE653FE4F908196FD16C02F5F4D
:100E10003F4F2C30310571F781110FC010928000C7
:100E200082E0809381001092850010928400B19A34
:100E300080916F00826080936F00E091EF018E2FB0
:100E400090E0FC01EE0FFF1FE80FF91FE653FE4F85
:100E5000808180648083E0913D01F0913E0182E0D9
:100E60008083E0913901F0913A011082E0913B01D9
:100E7000F0913C018FEC808310924501E09141019B
:100E8000F091420186E08083E0913F01F0914001C2
:100E9000808180618083E0913F01F09140018081F9
:100EA00088608083E0913F01F091400180818068FB
:100EB0008083E0913F01F091400180818F7D8083AC
:100EC00061E08BE00E94710161E086E00E947101A7
:100ED00061E089E00E94710161E085E00E9471019A
:100EE00060E082E00E94710160E084E00E94710194
:100EF00083E790E00E948C0060ED77E080E090E076
:100F00000E940F020E949E0364E670E080E090E081
:100F10000E940F020E949E0364E670E080E090E071
:100F20000E940F020E949E0364E670E080E090E061
:100F30000E940F020E949E03909301018093000182
:100F400064E670E080E090E00E940F0200E010E0B4
:100F5000EE24E394F12C8DE291E00E949F02892B14
:100F600009F43BC18DE291E00E947D028093230150
:100F7000682F8DE291E00E94E10242E050E064E1DE
:100F800071E08DE291E00E94410280912301982F4F
:100F90009B7E923421F08C3411F0883589F41092C4
:100FA000220110922101209121013091220121156D
:100FB000310509F05DC0863499F40E948E03CBCFD1
:100FC000873529F4F0922201E0922101ECCF85359A
:100FD00051F722E030E03093220120932101E3CF4A
:100FE000823419F40E947E03B6CF823519F40E9430
:100FF0005E03B1CF8C3419F40E944E03ACCF83351D
:1010000019F40E946E03A7CF8635D9F461E08BE016
:101010000E94710165E570E08BE00E94A20160E032
:1010200086E00E94430161E089E00E94710165E56C
:1010300070E089E00E94A20160E085E00E94430127
:101040008ACF883509F087CF61E08BE00E9471017B
:101050006AEA70E08BE00E94A20160E086E00E94F4
:10106000430161E089E00E9471016AEA70E0E1CF2A
:101070002130310591F582E00E941A01EC0184E0F3
:101080000E941A018130910589F4C130D10509F41B
:1010900094CFCD2B09F05FCF61E08BE00E9443013C
:1010A00060E086E00E94430160E00FC0892B09F0F8
:1010B00052CFC130D10569F460E08BE00E9443015A
:1010C00060E086E00E94430161E089E00E94430104
:1010D000B3CFCD2B09F03FCF94CF2230310509F0AB
:1010E0003ACF62E370E080E090E00E940F02C0908F
:1010F0000001D090010182E1C816D1040CF06AC051
:101100000E946E036CE271E080E090E00E940F02AA
:101110000E947E0360E971E080E090E00E940F028F
:101120000E946E036CE271E080E090E00E940F028A
:1011300082E390E00E948C0064EF71E080E090E038
:101140000E940F020E949E0364E670E080E090E03F
:101150000E940F0283E790E00E948C006CE271E035
:1011600080E090E00E940F028AEA90E00E948C00EA
:1011700064EF71E080E090E00E940F020E949E0305
:10118000EC0164E670E080E090E00E940F0283E7EB
:1011900090E00E948C00D0932001C0931F016CE26C
:1011A00071E080E090E00E940F02CC16DD067CF03A
:1011B0000E945E0368EE73E080E090E00E940F0200
:1011C0000E949E039093010180930001C4CE0E946F
:1011D0004E03F0CF0E948E03F3CF0115110509F4E1
:1011E000BACE0E94AB02882309F4B5CE0E9400005B
:1011F000B2CE052E97FB1EF400940E94100957FDF5
:1012000007D00E942B0907FC03D04EF40C94100960
:1012100050954095309521953F4F4F4F5F4F089522
:1012200090958095709561957F4F8F4F9F4F089552
:101230000E944D09A59F900DB49F900DA49F800D15
:10124000911D11240895B7FF0C9418090E941809E4
:10125000821B930B0895A1E21A2EAA1BBB1BFD0152
:101260000DC0AA1FBB1FEE1FFF1FA217B307E40785
:10127000F50720F0A21BB30BE40BF50B661F771FDD
:10128000881F991F1A9469F76095709580959095BD
:101290009B01AC01BD01CF010895A29FB001B39F96
:1012A000C001A39F700D811D1124911DB29F700D6F
:1012B000811D1124911D0895991B79E004C0991F87
:1012C000961708F0961B881F7A95C9F780950895A0
:1012D000EE0FFF1F0590F491E02D0994F894FFCFD5
:1012E000640000000000E10241026E022E039F0232
:0812F0007D0291020D0A0000CD
:00000001FF
