:100000000C9462000C948A000C948A000C948A0070
:100010000C948A000C948A000C948A000C94CA05F3
:100020000C948A000C948A000C948A000C940E059F
:100030000C948A000C948A000C948A000C948A0018
:100040000C946C040C948A000C94DC040C94B6049C
:100050000C948A000C948A000C948A000C948A00F8
:100060000C948A000C948A00000000080002010031
:100070000003040700000000000000000000000072
:10008000240027002A000000000023002600290089
:1000900000000000250028002B00040404040404D0
:1000A0000404020202020202030303030303010227
:1000B00004081020408001020408102001020408F6
:1000C0001020EF0511241FBECFEFD8E0DEBFCDBF5B
:1000D00011E0A0E0B1E0ECE7F2E102C005900D9282
:1000E000A831B107D9F722E0A8E1B1E001C01D9223
:1000F000A230B207E1F710E0C2E6D0E004C02197D9
:10010000FE010E943609C136D107C9F70E94880650
:100110000C943C090C9400008F929F92AF92BF9276
:10012000FF920F931F93CF93DF93F090ED012BE09D
:100130002F1508F44CC02091EF0108E512E0021BD6
:10014000110927FD1395000F111F000F111F20919A
:10015000EE01C8E8D0E0C21BD10927FDD395CC0F32
:10016000DD1FCC0FDD1F4E010D2E000CAA08BB08B1
:100170009801012E000C440B550B281939094A0926
:100180005B09DC010E94F10824EB30E040E050E024
:100190000E94C708820E931EA41EB51E8C169D06D3
:1001A0002CF0E801801691060CF4E4012297CC0FA4
:1001B000DD1F2FB7F8948F2D90E0FC01EE0FFF1F8D
:1001C000E80FF91FE853FE4FD283C1832FBFDF91A1
:1001D000CF911F910F91FF90BF90AF909F908F9004
:1001E0000895833081F028F4813099F08230A9F0AD
:1001F00008958730A9F08830C9F08430B1F4809137
:1002000080008F7D03C0809180008F778093800075
:10021000089584B58F7784BD089584B58F7DFBCF15
:100220008091B0008F778093B00008958091B000E6
:100230008F7DF9CFCF93DF93282F30E0F901E85974
:10024000FF4F8491F901E255FF4FD491F901E65631
:10025000FF4FC491CC23A1F081110E94F100EC2F3B
:10026000F0E0EE0FFF1FEA57FF4FA591B491EC911C
:10027000ED2381E090E009F480E0DF91CF910895D3
:1002800080E090E0FACF1F93CF93DF93282F30E0E8
:10029000F901E859FF4F8491F901E255FF4FD491DC
:1002A000F901E656FF4FC491CC23A9F0162F811116
:1002B0000E94F100EC2FF0E0EE0FFF1FE057FF4F20
:1002C000A591B4918FB7F894EC91111108C0D09515
:1002D000DE23DC938FBFDF91CF911F910895DE2B3A
:1002E000F8CFCF93DF9390E0FC01E255FF4F2491CC
:1002F00086569F4FFC0184918823D1F090E0880FAF
:10030000991FFC01E458FF4FA591B491FC01E057FF
:10031000FF4FC591D49161110EC09FB7F8948C9195
:10032000E22FE0958E238C932881E223E8839FBF00
:10033000DF91CF9108958FB7F894EC91E22BEC9375
:100340008FBFF6CFE82FF0E0E859FF4FE491E3309C
:1003500029F150F4E130C1F0E230D9F06038710594
:10036000BCF560E00C944301E73011F1E83041F155
:10037000E430A1F7809180008062809380007093C8
:100380008B0060938A00089584B5806884BD67BD42
:10039000089584B5806284BD68BD08958091800011
:1003A000806880938000709389006093880008952E
:1003B0008091B00080688093B0006093B30008958E
:1003C0008091B00080628093B0006093B400089583
:1003D00061E0C8CF3FB7F894809127019091280140
:1003E000A0912901B0912A0126B5A89B05C02F3FF5
:1003F00019F00196A11DB11D3FBFBA2FA92F982F4B
:100400008827BC01CD01620F711D811D911D42E045
:10041000660F771F881F991F4A95D1F708958F920D
:100420009F92AF92BF92CF92DF92EF92FF924B01D9
:100430005C010E94EA016B017C010E94EA016C19D7
:100440007D098E099F09683E734081059105A8F3D7
:1004500021E0821A9108A108B10888EEC80E83E055
:10046000D81EE11CF11C81149104A104B10429F7E8
:10047000FF90EF90DF90CF90BF90AF909F908F90C4
:100480000895AF92BF92CF92DF92EF92FF920F93B7
:100490001F93CF93DF936C017B018B01040F151F1A
:1004A000EB015E01AE18BF08C017D10759F0699182
:1004B000D601ED91FC910190F081E02DC6010995E6
:1004C000892B79F7C501DF91CF911F910F91FF9093
:1004D000EF90DF90CF90BF90AF900895FC01538DC7
:1004E000448D252F30E0842F90E0821B930B54170E
:1004F00010F0CF96089501970895FC01918D828D9B
:10050000981761F0A28DAE0FBF2FB11D5D968C9133
:10051000928D9F5F9F73928F90E008958FEF9FEF72
:100520000895FC01918D828D981731F0828DE80F2E
:10053000F11D858D90E008958FEF9FEF0895FC01E8
:10054000918D228D892F90E0805C9F4F821B9109B5
:100550008F73992708958BE291E00E949F0221E01A
:10056000892B09F420E0822F089580E090E0892B08
:1005700029F00E94AB0281110C9400000895FC0147
:10058000A48DA80FB92FB11DA35ABF4F2C91848DF4
:1005900090E001968F739927848FA689B7892C9351
:1005A000A089B1898C91837080648C93938D848DA4
:1005B000981306C00288F389E02D80818F7D8083A7
:1005C0000895EF92FF920F931F93CF93DF93EC0167
:1005D00081E0888F9B8D8C8D98131AC0E889F989EA
:1005E000808185FF15C09FB7F894EE89FF896083ED
:1005F000E889F98980818370806480839FBF81E06E
:1006000090E0DF91CF911F910F91FF90EF900895AF
:10061000F62E0B8D10E00F5F1F4F0F731127E02E8A
:100620008C8D8E110CC00FB607FCFACFE889F989C2
:10063000808185FFF5CFCE010E94BF02F1CFEB8D07
:10064000EC0FFD2FF11DE35AFF4FF0829FB7F89496
:100650000B8FEA89FB8980818062CFCFCF93DF93B4
:10066000EC01888D8823B9F0AA89BB89E889F989CA
:100670008C9185FD03C0808186FD0DC00FB607FCFF
:10068000F7CF8C9185FFF2CF808185FFEDCFCE0132
:100690000E94BF02E9CFDF91CF91089560E08BE027
:1006A0000E94430160E086E00E94430161E089E02E
:1006B0000E94430160E085E00C94430161E08BE01F
:1006C0000E94430160E086E00E94430160E089E00F
:1006D0000E94430160E085E00C94430160E08BE000
:1006E0000E94430160E086E00E94430160E089E0EF
:1006F0000E94430160E085E00C94430160E08BE0E0
:100700000E94430161E086E00E94430160E089E0CD
:100710000E94430161E085E00C94430161E08BE0BD
:100720000E94430160E086E00E94430161E089E0AD
:100730000E94430160E085E00C9443010F931F93F6
:1007400066E470E080E090E00E940F02E091FA0120
:10075000F091FB0180819091F401892B8083E091DD
:10076000F601F091F70190818091F4018095892341
:1007700080838BE090E00197F1F7E091F601F09132
:10078000F70180819091F401892B808383E290E0CE
:100790000197F1F7E091F601F091F70190818091D6
:1007A000F401809589238083E091FA01F091FB01A7
:1007B00090818091F401809589238083E091F801F4
:1007C000F091F90180819091F501892399F090E0F1
:1007D00080E0BC0190E080E029E330E040E050E0C0
:1007E0000E94F908C901009711F48AEF90E01F9167
:1007F0000F9108950E94EA01AB01BC018091FC01B8
:100800009091FD01B0E0A0E08855994EAF4FBF4FE9
:10081000840F951FA61FB71F8093FE019093FF01C1
:10082000A0930002B0930102E091F801F091F90168
:1008300080819091F501892381F40E94EA01009161
:10084000FE011091FF012091000230910102061774
:1008500017072807390740F7BACF0E94EA0120910D
:10086000FC013091FD01620F731F811D911D60938A
:10087000FE017093FF018093000290930102E091CA
:10088000F801F091F90180819091F501892381F0BF
:100890000E94EA010091FE011091FF0120910002E7
:1008A00030910102061717072807390740F78FCF45
:1008B0000E94EA012091FC013091FD01A9014550FF
:1008C00051092091FE013091FF01FA01E21BF30B67
:1008D000CF01860F971F7DCF1F920F920FB60F92F9
:1008E00011242F933F938F939F93AF93BF93809146
:1008F000230190912401A0912501B091260130910E
:10090000220123E0230F2D3758F50196A11DB11DBB
:10091000209322018093230190932401A093250129
:10092000B09326018091270190912801A09129017F
:10093000B0912A010196A11DB11D809327019093CA
:100940002801A0932901B0932A01BF91AF919F91F3
:100950008F913F912F910F900FBE0F901F90189580
:1009600026E8230F0296A11DB11DD2CF1F920F9230
:100970000FB60F9211242F933F934F935F936F9372
:100980007F938F939F93AF93BF93EF93FF938BE2EC
:1009900091E00E94BF02FF91EF91BF91AF919F91B3
:1009A0008F917F916F915F914F913F912F910F9018
:1009B0000FBE0F901F9018951F920F920FB60F92B7
:1009C00011242F938F939F93EF93FF93E0913B011B
:1009D000F0913C018081E0914101F091420182FD62
:1009E0001BC09081809144018F5F8F7320914501DE
:1009F000821741F0E0914401F0E0E55DFE4F958FF4
:100A000080934401FF91EF919F918F912F910F90CF
:100A10000FBE0F901F9018958081F4CF1F920F92F8
:100A20000FB60F9211242F933F934F935F936F93C1
:100A30007F938F939F93AF93BF93CF93DF93EF9366
:100A4000FF9380911C01C091EC01D0E087FF24C08E
:100A5000109285001092840080911C018F5F80931A
:100A60001C0180911C01082E000C990B8C179D070E
:100A700024F480911C018C30C4F180918400909109
:100A80008500049680349C4908F47AC080918400E3
:100A900090918500049676C080911C01082E000C70
:100AA000990B8C179D07C4F6E0911C018E2FEE0F59
:100AB000990BFC01EE0FFF1FE80FF91FE853FE4FE3
:100AC000808186FFC9CFE0911C018E2FEE0F990B1C
:100AD000FC01EE0FFF1FE80FF91FE853FE4F808166
:100AE00060E08F730E944301B7CF20918400309162
:100AF0008500E0911C018E2FEE0F990BFC01EE0F8B
:100B0000FF1FE80FF91FE853FE4F81819281820F8A
:100B1000931F9093890080938800E0911C018E2F91
:100B2000EE0F990BFC01EE0FFF1FE80FF91FE853C2
:100B3000FE4F808186FF11C0E0911C018E2FEE0FC9
:100B4000990BFC01EE0FFF1FE80FF91FE853FE4F52
:100B5000808161E08F730E944301FF91EF91DF91EB
:100B6000CF91BF91AF919F918F917F916F915F9145
:100B70004F913F912F910F900FBE0F901F9018959E
:100B800080E49CE990938900809388008FEF8093A4
:100B90001C01E3CF1F920F920FB60F9211242F93D7
:100BA0003F934F935F936F937F938F939F93AF93F5
:100BB000BF93EF93FF93F0E0E0E00995FF91EF9191
:100BC000BF91AF919F918F917F916F915F914F9165
:100BD0003F912F910F900FBE0F901F90189510927C
:100BE0002E0110922D0188EE93E0A0E0B0E08093FA
:100BF0002F0190933001A0933101B093320186E030
:100C000091E090932C0180932B0185EC90E09093E0
:100C100038018093370184EC90E090933A018093FF
:100C2000390180EC90E090933C0180933B0181EC92
:100C300090E090933E0180933D0182EC90E0909390
:100C4000400180933F0186EC90E0909342018093B5
:100C500041011092440110924501109246011092F8
:100C60004701ECEBF0E0E491E093F401EDEBF0E010
:100C7000E491E093F50188EA90E0FC012491E22FF1
:100C8000F0E0EE0FFF1FE057FF4F259134913093B6
:100C9000F7012093F601E9EAF0E0E491F0E0EE0FCD
:100CA000FF1FEA57FF4F259134913093F9012093AC
:100CB000F801FC018491E82FF0E0EE0FFF1FE458EB
:100CC000FF4F859194919093FB018093FA0183EEFD
:100CD00097E39093FD018093FC018091EC018C30AF
:100CE00098F491E0980F9093EC018093ED0190E0DF
:100CF000FC01EE0FFF1FE80FF91FE853FE4F88EBD2
:100D00009BE09283818308958FEF8093ED01089596
:100D1000789484B5826084BD84B5816084BD85B5D6
:100D2000826085BD85B5816085BD80916E008160E2
:100D300080936E0010928100809181008260809388
:100D4000810080918100816080938100809180008A
:100D50008160809380008091B10084608093B100B5
:100D60008091B00081608093B00080917A008460AF
:100D700080937A0080917A00826080937A008091DB
:100D80007A00816080937A0080917A0080688093F5
:100D90007A001092C1008091ED018C3008F051C0B2
:100DA00061E08AE00E9471018091ED01282F30E01E
:100DB000F901EE0FFF1FE20FF31FE853FE4F908182
:100DC000907C9A6090831092EE011092EF012CE0DB
:100DD000622F0E942A09829FB001112430E020E096
:100DE000AB01420F531FFA01EE0FFF1FE40FF51F77
:100DF000E853FE4F908196FD16C02F5F3F4F2C3079
:100E0000310571F781110FC01092800082E080934C
:100E100081001092850010928400B19A80916F0039
:100E2000826080936F00E091ED018E2F90E0FC01D5
:100E3000EE0FFF1FE80FF91FE853FE4F808180641B
:100E4000808360E087E00E94710160E083E00E949F
:100E50007101E0913B01F0913C0182E08083E091DF
:100E60003701F09138011082E0913901F0913A0197
:100E70008FEC808310924301E0913F01F09140019B
:100E800086E08083E0913D01F0913E0180818061A8
:100E90008083E0913D01F0913E01808188608083F4
:100EA000E0913D01F0913E01808180688083E09176
:100EB0003D01F0913E0180818F7D808361E08BE078
:100EC0000E94710161E086E00E94710161E089E0A9
:100ED0000E94710161E085E00E94710160E082E0A2
:100EE0000E94710160E084E00E94710183E790E05C
:100EF0000E948C0060ED77E080E090E00E940F029D
:100F00000E949E0364E670E080E090E00E940F0281
:100F10000E949E0364E670E080E090E00E940F0271
:100F20000E949E0364E670E080E090E00E940F0261
:100F30000E949E03909301018093000164E670E09B
:100F400080E090E00E940F0200E010E087E00E9445
:100F50001A01EC01909321018093200183E00E940B
:100F60001A01C130D10509F094C0009741F582E023
:100F70000E941A01EC0184E00E941A01009771F4AA
:100F8000209799F40E948E0301151105F9F20E9431
:100F9000AB028823D9F20E940000D8CF0197A1F7B5
:100FA000209741F40E945E03EFCF219769F70E94DA
:100FB0004E03EACF219741F70E946E03E5CF0197D8
:100FC00019F78BE291E00E949F02892BE9F28BE2F4
:100FD00091E00E947D0280931D01682F8BE291E0D9
:100FE0000E94E10242E050E064E171E08BE291E0B6
:100FF0000E94410280911D01863419F40E948E03E3
:10100000E0CF823419F40E947E03DBCF823519F4DD
:101010000E944E03D6CF8C3419F40E945E03D1CFC8
:10102000833519F40E946E03CCCF8635D9F461E084
:101030008BE00E94710165E570E08BE00E94A201E7
:1010400060E086E00E94430161E089E00E94710156
:1010500065E570E089E00E94A20160E085E00E9401
:101060004301AFCF883509F0ACCF61E08BE00E943F
:1010700071016AEA70E08BE00E94A20160E086E004
:101080000E94430161E089E00E9471016AEA70E018
:10109000E1CFCD2B09F078CF019709F075CF62E34E
:1010A00070E080E090E00E940F02E0900001F0907C
:1010B000010185E1E816F1040CF066C00E946E03A0
:1010C0006CE271E080E090E00E940F020E947E03DB
:1010D00060E971E080E090E00E940F020E946E03E0
:1010E0006CE271E080E090E00E940F0282E390E009
:1010F0000E948C0064EF71E080E090E00E940F029B
:101100000E949E0364E670E080E090E00E940F027F
:1011100083E790E00E948C006CE271E080E090E058
:101120000E940F028AEA90E00E948C0064EF71E056
:1011300080E090E00E940F020E949E03EC0164E6B2
:1011400070E080E090E00E940F0283E790E00E9450
:101150008C00D0931F01C0931E016CE271E080E00F
:1011600090E00E940F02EC16FD065CF00E944E0318
:101170000E946E030E949E039093010180930001E0
:1011800003CF0E945E03F4CF0E948E03F3CF052E9F
:1011900097FB1EF400940E94DE0857FD07D00E94C2
:1011A000F90807FC03D04EF40C94DE0850954095E6
:1011B000309521953F4F4F4F5F4F08959095809503
:1011C000709561957F4F8F4F9F4F08950E941B0927
:1011D000A59F900DB49F900DA49F800D911D11248B
:1011E0000895B7FF0C94E6080E94E608821B930B53
:1011F0000895A1E21A2EAA1BBB1BFD010DC0AA1F58
:10120000BB1FEE1FFF1FA217B307E407F50720F06F
:10121000A21BB30BE40BF50B661F771F881F991FEA
:101220001A9469F760957095809590959B01AC0133
:10123000BD01CF010895A29FB001B39FC001A39F3C
:10124000700D811D1124911DB29F700D811D1124FF
:10125000911D0895991B79E004C0991F961708F015
:10126000961B881F7A95C9F780950895EE0FFF1F8A
:0C1270000590F491E02D0994F894FFCF54
:10127C00640000000000E10241026E022E039F0296
:08128C007D0291020D0A000031
:00000001FF
